{
  "contractName": "newNFT",
  "abi": [
    {
      "inputs": [],
      "stateMutability": "nonpayable",
      "type": "constructor"
    },
    {
      "anonymous": false,
      "inputs": [
        {
          "indexed": true,
          "internalType": "address",
          "name": "_owner",
          "type": "address"
        },
        {
          "indexed": true,
          "internalType": "address",
          "name": "_approved",
          "type": "address"
        },
        {
          "indexed": true,
          "internalType": "uint256",
          "name": "_tokenId",
          "type": "uint256"
        }
      ],
      "name": "Approval",
      "type": "event"
    },
    {
      "anonymous": false,
      "inputs": [
        {
          "indexed": true,
          "internalType": "address",
          "name": "_owner",
          "type": "address"
        },
        {
          "indexed": true,
          "internalType": "address",
          "name": "_operator",
          "type": "address"
        },
        {
          "indexed": false,
          "internalType": "bool",
          "name": "_approved",
          "type": "bool"
        }
      ],
      "name": "ApprovalForAll",
      "type": "event"
    },
    {
      "anonymous": false,
      "inputs": [
        {
          "indexed": true,
          "internalType": "address",
          "name": "previousOwner",
          "type": "address"
        },
        {
          "indexed": true,
          "internalType": "address",
          "name": "newOwner",
          "type": "address"
        }
      ],
      "name": "OwnershipTransferred",
      "type": "event"
    },
    {
      "anonymous": false,
      "inputs": [
        {
          "indexed": true,
          "internalType": "address",
          "name": "_from",
          "type": "address"
        },
        {
          "indexed": true,
          "internalType": "address",
          "name": "_to",
          "type": "address"
        },
        {
          "indexed": true,
          "internalType": "uint256",
          "name": "_tokenId",
          "type": "uint256"
        }
      ],
      "name": "Transfer",
      "type": "event"
    },
    {
      "inputs": [],
      "name": "CANNOT_TRANSFER_TO_ZERO_ADDRESS",
      "outputs": [
        {
          "internalType": "string",
          "name": "",
          "type": "string"
        }
      ],
      "stateMutability": "view",
      "type": "function"
    },
    {
      "inputs": [],
      "name": "NOT_CURRENT_OWNER",
      "outputs": [
        {
          "internalType": "string",
          "name": "",
          "type": "string"
        }
      ],
      "stateMutability": "view",
      "type": "function"
    },
    {
      "inputs": [
        {
          "internalType": "address",
          "name": "_approved",
          "type": "address"
        },
        {
          "internalType": "uint256",
          "name": "_tokenId",
          "type": "uint256"
        }
      ],
      "name": "approve",
      "outputs": [],
      "stateMutability": "nonpayable",
      "type": "function"
    },
    {
      "inputs": [
        {
          "internalType": "address",
          "name": "_owner",
          "type": "address"
        }
      ],
      "name": "balanceOf",
      "outputs": [
        {
          "internalType": "uint256",
          "name": "",
          "type": "uint256"
        }
      ],
      "stateMutability": "view",
      "type": "function"
    },
    {
      "inputs": [
        {
          "internalType": "uint256",
          "name": "_tokenId",
          "type": "uint256"
        }
      ],
      "name": "getApproved",
      "outputs": [
        {
          "internalType": "address",
          "name": "",
          "type": "address"
        }
      ],
      "stateMutability": "view",
      "type": "function"
    },
    {
      "inputs": [
        {
          "internalType": "address",
          "name": "_owner",
          "type": "address"
        },
        {
          "internalType": "address",
          "name": "_operator",
          "type": "address"
        }
      ],
      "name": "isApprovedForAll",
      "outputs": [
        {
          "internalType": "bool",
          "name": "",
          "type": "bool"
        }
      ],
      "stateMutability": "view",
      "type": "function"
    },
    {
      "inputs": [],
      "name": "name",
      "outputs": [
        {
          "internalType": "string",
          "name": "_name",
          "type": "string"
        }
      ],
      "stateMutability": "view",
      "type": "function"
    },
    {
      "inputs": [],
      "name": "owner",
      "outputs": [
        {
          "internalType": "address",
          "name": "",
          "type": "address"
        }
      ],
      "stateMutability": "view",
      "type": "function"
    },
    {
      "inputs": [
        {
          "internalType": "uint256",
          "name": "_tokenId",
          "type": "uint256"
        }
      ],
      "name": "ownerOf",
      "outputs": [
        {
          "internalType": "address",
          "name": "_owner",
          "type": "address"
        }
      ],
      "stateMutability": "view",
      "type": "function"
    },
    {
      "inputs": [
        {
          "internalType": "address",
          "name": "_from",
          "type": "address"
        },
        {
          "internalType": "address",
          "name": "_to",
          "type": "address"
        },
        {
          "internalType": "uint256",
          "name": "_tokenId",
          "type": "uint256"
        }
      ],
      "name": "safeTransferFrom",
      "outputs": [],
      "stateMutability": "nonpayable",
      "type": "function"
    },
    {
      "inputs": [
        {
          "internalType": "address",
          "name": "_from",
          "type": "address"
        },
        {
          "internalType": "address",
          "name": "_to",
          "type": "address"
        },
        {
          "internalType": "uint256",
          "name": "_tokenId",
          "type": "uint256"
        },
        {
          "internalType": "bytes",
          "name": "_data",
          "type": "bytes"
        }
      ],
      "name": "safeTransferFrom",
      "outputs": [],
      "stateMutability": "nonpayable",
      "type": "function"
    },
    {
      "inputs": [
        {
          "internalType": "address",
          "name": "_operator",
          "type": "address"
        },
        {
          "internalType": "bool",
          "name": "_approved",
          "type": "bool"
        }
      ],
      "name": "setApprovalForAll",
      "outputs": [],
      "stateMutability": "nonpayable",
      "type": "function"
    },
    {
      "inputs": [
        {
          "internalType": "bytes4",
          "name": "_interfaceID",
          "type": "bytes4"
        }
      ],
      "name": "supportsInterface",
      "outputs": [
        {
          "internalType": "bool",
          "name": "",
          "type": "bool"
        }
      ],
      "stateMutability": "view",
      "type": "function"
    },
    {
      "inputs": [],
      "name": "symbol",
      "outputs": [
        {
          "internalType": "string",
          "name": "_symbol",
          "type": "string"
        }
      ],
      "stateMutability": "view",
      "type": "function"
    },
    {
      "inputs": [
        {
          "internalType": "uint256",
          "name": "_tokenId",
          "type": "uint256"
        }
      ],
      "name": "tokenURI",
      "outputs": [
        {
          "internalType": "string",
          "name": "",
          "type": "string"
        }
      ],
      "stateMutability": "view",
      "type": "function"
    },
    {
      "inputs": [
        {
          "internalType": "address",
          "name": "_from",
          "type": "address"
        },
        {
          "internalType": "address",
          "name": "_to",
          "type": "address"
        },
        {
          "internalType": "uint256",
          "name": "_tokenId",
          "type": "uint256"
        }
      ],
      "name": "transferFrom",
      "outputs": [],
      "stateMutability": "nonpayable",
      "type": "function"
    },
    {
      "inputs": [
        {
          "internalType": "address",
          "name": "_newOwner",
          "type": "address"
        }
      ],
      "name": "transferOwnership",
      "outputs": [],
      "stateMutability": "nonpayable",
      "type": "function"
    },
    {
      "inputs": [
        {
          "internalType": "address",
          "name": "_to",
          "type": "address"
        },
        {
          "internalType": "uint256",
          "name": "_tokenId",
          "type": "uint256"
        },
        {
          "internalType": "string",
          "name": "_uri",
          "type": "string"
        }
      ],
      "name": "mint",
      "outputs": [],
      "stateMutability": "nonpayable",
      "type": "function"
    }
  ],
  "bytecode": "0x608060405234801561000f575f80fd5b505f60208181527f67be87c3ff9960ca1e9cfac5cab2ff4747269cf9ed20c9b7306235ac35a491c5805460ff1990811660019081179092557ff7815fccbf112960a73756e185887fedcb9fc64ca0a16cc5923b7960ed7808008054821683179055635b5e139f60e01b9093527f9562381dfbc2d8b8b66e765249f330164b73e329e5f01670660643571d1974df805490931617909155600880546001600160a01b0319163317905560408051808201909152601081526f21b2b93a34b334b1b0b237902825a92b60811b918101919091526005906100ed90826101b4565b506040805180820190915260048152632825a92b60e11b602082015260069061011690826101b4565b50610273565b634e487b7160e01b5f52604160045260245ffd5b600181811c9082168061014457607f821691505b60208210810361016257634e487b7160e01b5f52602260045260245ffd5b50919050565b601f8211156101af57805f5260205f20601f840160051c8101602085101561018d5750805b601f840160051c820191505b818110156101ac575f8155600101610199565b50505b505050565b81516001600160401b038111156101cd576101cd61011c565b6101e1816101db8454610130565b84610168565b602080601f831160018114610214575f84156101fd5750858301515b5f19600386901b1c1916600185901b17855561026b565b5f85815260208120601f198616915b8281101561024257888601518255948401946001909101908401610223565b508582101561025f57878501515f19600388901b60f8161c191681555b505060018460011b0185555b505050505050565b611628806102805f395ff3fe608060405234801561000f575f80fd5b5060043610610111575f3560e01c80638da5cb5b1161009e578063c87b56dd1161006e578063c87b56dd1461026b578063d3fc98641461027e578063e985e9c514610291578063f2fde38b146102cc578063f3fe3bc3146102df575f80fd5b80638da5cb5b1461022a57806395d89b411461023d578063a22cb46514610245578063b88d4fde14610258575f80fd5b806323b872dd116100e457806323b872dd146101ab57806342842e0e146101be5780636352211e146101d157806370a08231146101e4578063860d248a14610205575f80fd5b806301ffc9a71461011557806306fdde0314610156578063081812fc1461016b578063095ea7b314610196575b5f80fd5b6101416101233660046111a1565b6001600160e01b0319165f9081526020819052604090205460ff1690565b60405190151581526020015b60405180910390f35b61015e610304565b60405161014d91906111ea565b61017e6101793660046111fc565b610394565b6040516001600160a01b03909116815260200161014d565b6101a96101a436600461122e565b610414565b005b6101a96101b9366004611256565b6105b0565b6101a96101cc366004611256565b610766565b61017e6101df3660046111fc565b610785565b6101f76101f236600461128f565b6107dc565b60405190815260200161014d565b61015e6040518060400160405280600681526020016518189c18181960d11b81525081565b60085461017e906001600160a01b031681565b61015e610842565b6101a96102533660046112a8565b610851565b6101a9610266366004611326565b6108bc565b61015e6102793660046111fc565b610904565b6101a961028c366004611390565b61096f565b61014161029f3660046113e6565b6001600160a01b039182165f90815260046020908152604080832093909416825291909152205460ff1690565b6101a96102da36600461128f565b610a08565b61015e6040518060400160405280600681526020016530313830303160d01b81525081565b60606005805461031390611417565b80601f016020809104026020016040519081016040528092919081815260200182805461033f90611417565b801561038a5780601f106103615761010080835404028352916020019161038a565b820191905f5260205f20905b81548152906001019060200180831161036d57829003601f168201915b5050505050905090565b5f818152600160209081526040808320548151808301909252600682526518181998181960d11b9282019290925283916001600160a01b03166103f35760405162461bcd60e51b81526004016103ea91906111ea565b60405180910390fd5b505f838152600260205260409020546001600160a01b031691505b50919050565b5f8181526001602052604090205481906001600160a01b03163381148061045d57506001600160a01b0381165f90815260046020908152604080832033845290915290205460ff165b6040518060400160405280600681526020016530303330303360d01b8152509061049a5760405162461bcd60e51b81526004016103ea91906111ea565b505f83815260016020908152604091829020548251808401909352600683526518181998181960d11b918301919091528491906001600160a01b03166104f35760405162461bcd60e51b81526004016103ea91906111ea565b505f84815260016020908152604091829020548251808401909352600683526506060666060760d31b918301919091526001600160a01b039081169190871682036105515760405162461bcd60e51b81526004016103ea91906111ea565b505f8581526002602052604080822080546001600160a01b0319166001600160a01b038a811691821790925591518893918516917f8c5be1e5ebec7d5bd14f71427d1e84f3dd0314c0f7b2291e5b200ac8c7c3b92591a4505050505050565b5f8181526001602052604090205481906001600160a01b0316338114806105ec57505f828152600260205260409020546001600160a01b031633145b8061061957506001600160a01b0381165f90815260046020908152604080832033845290915290205460ff165b604051806040016040528060068152602001650c0c0ccc0c0d60d21b815250906106565760405162461bcd60e51b81526004016103ea91906111ea565b505f83815260016020908152604091829020548251808401909352600683526518181998181960d11b918301919091528491906001600160a01b03166106af5760405162461bcd60e51b81526004016103ea91906111ea565b505f84815260016020908152604091829020548251808401909352600683526530303330303760d01b918301919091526001600160a01b0390811691908816821461070d5760405162461bcd60e51b81526004016103ea91906111ea565b5060408051808201909152600681526530303330303160d01b60208201526001600160a01b0387166107525760405162461bcd60e51b81526004016103ea91906111ea565b5061075d8686610af2565b50505050505050565b61078083838360405180602001604052805f815250610b7c565b505050565b5f81815260016020908152604091829020548251808401909352600683526518181998181960d11b918301919091526001600160a01b0316908161040e5760405162461bcd60e51b81526004016103ea91906111ea565b60408051808201909152600681526530303330303160d01b60208201525f906001600160a01b0383166108225760405162461bcd60e51b81526004016103ea91906111ea565b506001600160a01b0382165f908152600360205260409020545b92915050565b60606006805461031390611417565b335f8181526004602090815260408083206001600160a01b03871680855290835292819020805460ff191686151590811790915590519081529192917f17307eab39ab6107e8899845ad3d59bd9653f200f220920489ca2b5937696c31910160405180910390a35050565b6108fd85858585858080601f0160208091040260200160405190810160405280939291908181526020018383808284375f92019190915250610b7c92505050565b5050505050565b5f81815260016020908152604091829020548251808401909352600683526518181998181960d11b9183019190915260609183916001600160a01b031661095e5760405162461bcd60e51b81526004016103ea91906111ea565b5061096883610e12565b9392505050565b60085460408051808201909152600681526530313830303160d01b6020820152906001600160a01b031633146109b85760405162461bcd60e51b81526004016103ea91906111ea565b506109c38484610eb1565b610a028383838080601f0160208091040260200160405190810160405280939291908181526020018383808284375f92019190915250610f9292505050565b50505050565b60085460408051808201909152600681526530313830303160d01b6020820152906001600160a01b03163314610a515760405162461bcd60e51b81526004016103ea91906111ea565b5060408051808201909152600681526518189c18181960d11b60208201526001600160a01b038216610a965760405162461bcd60e51b81526004016103ea91906111ea565b506008546040516001600160a01b038084169216907f8be0079c531659141344cd1fd0a4f28419497f9722a3daafe3b4186f6b6457e0905f90a3600880546001600160a01b0319166001600160a01b0392909216919091179055565b5f81815260016020908152604080832054600290925290912080546001600160a01b03191690556001600160a01b0316610b2c8183611002565b610b3683836110a8565b81836001600160a01b0316826001600160a01b03167fddf252ad1be2c89b69c2b068fc378daa952ba7f163c4a11628f55a4df523b3ef60405160405180910390a4505050565b5f8281526001602052604090205482906001600160a01b031633811480610bb857505f828152600260205260409020546001600160a01b031633145b80610be557506001600160a01b0381165f90815260046020908152604080832033845290915290205460ff165b604051806040016040528060068152602001650c0c0ccc0c0d60d21b81525090610c225760405162461bcd60e51b81526004016103ea91906111ea565b505f84815260016020908152604091829020548251808401909352600683526518181998181960d11b918301919091528591906001600160a01b0316610c7b5760405162461bcd60e51b81526004016103ea91906111ea565b505f85815260016020908152604091829020548251808401909352600683526530303330303760d01b918301919091526001600160a01b03908116919089168214610cd95760405162461bcd60e51b81526004016103ea91906111ea565b5060408051808201909152600681526530303330303160d01b60208201526001600160a01b038816610d1e5760405162461bcd60e51b81526004016103ea91906111ea565b50610d298787610af2565b610d3b876001600160a01b031661114e565b15610e0857604051630a85bd0160e11b81525f906001600160a01b0389169063150b7a0290610d749033908d908c908c90600401611449565b6020604051808303815f875af1158015610d90573d5f803e3d5ffd5b505050506040513d601f19601f82011682018060405250810190610db49190611485565b60408051808201909152600681526530303330303560d01b60208201529091506001600160e01b03198216630a85bd0160e11b14610e055760405162461bcd60e51b81526004016103ea91906111ea565b50505b5050505050505050565b5f818152600760205260409020805460609190610e2e90611417565b80601f0160208091040260200160405190810160405280929190818152602001828054610e5a90611417565b8015610ea55780601f10610e7c57610100808354040283529160200191610ea5565b820191905f5260205f20905b815481529060010190602001808311610e8857829003601f168201915b50505050509050919050565b60408051808201909152600681526530303330303160d01b60208201526001600160a01b038316610ef55760405162461bcd60e51b81526004016103ea91906111ea565b505f81815260016020908152604091829020548251808401909352600683526518181998181b60d11b918301919091526001600160a01b031615610f4c5760405162461bcd60e51b81526004016103ea91906111ea565b50610f5782826110a8565b60405181906001600160a01b038416905f907fddf252ad1be2c89b69c2b068fc378daa952ba7f163c4a11628f55a4df523b3ef908290a45050565b5f82815260016020908152604091829020548251808401909352600683526518181998181960d11b918301919091528391906001600160a01b0316610fea5760405162461bcd60e51b81526004016103ea91906111ea565b505f838152600760205260409020610a0283826114f8565b5f81815260016020908152604091829020548251808401909352600683526530303330303760d01b918301919091526001600160a01b0384811691161461105c5760405162461bcd60e51b81526004016103ea91906111ea565b506001600160a01b0382165f9081526003602052604081208054600192906110859084906115cc565b90915550505f90815260016020526040902080546001600160a01b031916905550565b5f81815260016020908152604091829020548251808401909352600683526518181998181b60d11b918301919091526001600160a01b0316156110fe5760405162461bcd60e51b81526004016103ea91906111ea565b505f81815260016020818152604080842080546001600160a01b0319166001600160a01b0388169081179091558452600390915282208054919290916111459084906115df565b90915550505050565b5f813f7fc5d2460186f7233c927e7db2dcc703c0e500b653ca82273b7bfad8045d85a47081158015906111815750808214155b949350505050565b6001600160e01b03198116811461119e575f80fd5b50565b5f602082840312156111b1575f80fd5b813561096881611189565b5f81518084528060208401602086015e5f602082860101526020601f19601f83011685010191505092915050565b602081525f61096860208301846111bc565b5f6020828403121561120c575f80fd5b5035919050565b80356001600160a01b0381168114611229575f80fd5b919050565b5f806040838503121561123f575f80fd5b61124883611213565b946020939093013593505050565b5f805f60608486031215611268575f80fd5b61127184611213565b925061127f60208501611213565b9150604084013590509250925092565b5f6020828403121561129f575f80fd5b61096882611213565b5f80604083850312156112b9575f80fd5b6112c283611213565b9150602083013580151581146112d6575f80fd5b809150509250929050565b5f8083601f8401126112f1575f80fd5b50813567ffffffffffffffff811115611308575f80fd5b60208301915083602082850101111561131f575f80fd5b9250929050565b5f805f805f6080868803121561133a575f80fd5b61134386611213565b945061135160208701611213565b935060408601359250606086013567ffffffffffffffff811115611373575f80fd5b61137f888289016112e1565b969995985093965092949392505050565b5f805f80606085870312156113a3575f80fd5b6113ac85611213565b935060208501359250604085013567ffffffffffffffff8111156113ce575f80fd5b6113da878288016112e1565b95989497509550505050565b5f80604083850312156113f7575f80fd5b61140083611213565b915061140e60208401611213565b90509250929050565b600181811c9082168061142b57607f821691505b60208210810361040e57634e487b7160e01b5f52602260045260245ffd5b6001600160a01b03858116825284166020820152604081018390526080606082018190525f9061147b908301846111bc565b9695505050505050565b5f60208284031215611495575f80fd5b815161096881611189565b634e487b7160e01b5f52604160045260245ffd5b601f82111561078057805f5260205f20601f840160051c810160208510156114d95750805b601f840160051c820191505b818110156108fd575f81556001016114e5565b815167ffffffffffffffff811115611512576115126114a0565b611526816115208454611417565b846114b4565b602080601f831160018114611559575f84156115425750858301515b5f19600386901b1c1916600185901b1785556115b0565b5f85815260208120601f198616915b8281101561158757888601518255948401946001909101908401611568565b50858210156115a457878501515f19600388901b60f8161c191681555b505060018460011b0185555b505050505050565b634e487b7160e01b5f52601160045260245ffd5b8181038181111561083c5761083c6115b8565b8082018082111561083c5761083c6115b856fea2646970667358221220b9762067633a8d309e7648564daf78a740fb7120e52609f856145de3152ce73764736f6c63430008190033",
  "immutableReferences": {},
  "source": "// SPDX-License-Identifier: MIT\npragma solidity 0.8.25;\n \nimport \"@0xcert/ethereum-erc721/src/contracts/tokens/nf-token-metadata.sol\";\nimport \"@0xcert/ethereum-erc721/src/contracts/ownership/ownable.sol\";\n\n \ncontract newNFT is NFTokenMetadata, Ownable {\n \n  \n  constructor() {\n    nftName = \"Certificado PKRV\";\n    nftSymbol = \"PKRV\";\n  }\n\n    function mint(address _to, uint256 _tokenId, string calldata _uri) external onlyOwner{\n        super._mint(_to, _tokenId);\n        super._setTokenUri(_tokenId, _uri);\n    }\n\n\n}",
  "sourcePath": "/home/kauanluacio/Servidor/contracts/newNFT.sol",
  "compiler": {
    "name": "solc",
    "version": "0.8.25+commit.b61c2a91.Emscripten.clang"
  },
  "schemaVersion": "3.4.16",
  "updatedAt": "2024-03-22T03:50:14.567Z",
  "devdoc": {
    "events": {
      "Approval(address,address,uint256)": {
        "details": "This emits when the approved address for an NFT is changed or reaffirmed. The zero address indicates there is no approved address. When a Transfer event emits, this also indicates that the approved address for that NFT (if any) is reset to none."
      },
      "ApprovalForAll(address,address,bool)": {
        "details": "This emits when an operator is enabled or disabled for an owner. The operator can manage all NFTs of the owner."
      },
      "OwnershipTransferred(address,address)": {
        "details": "An event which is triggered when the owner is changed.",
        "params": {
          "newOwner": "The address of the new owner.",
          "previousOwner": "The address of the previous owner."
        }
      },
      "Transfer(address,address,uint256)": {
        "details": "Emits when ownership of any NFT changes by any mechanism. This event emits when NFTs are created (`from` == 0) and destroyed (`to` == 0). Exception: during contract creation, any number of NFTs may be created and assigned without emitting Transfer. At the time of any transfer, the approved address for that NFT (if any) is reset to none."
      }
    },
    "kind": "dev",
    "methods": {
      "approve(address,uint256)": {
        "details": "Set or reaffirm the approved address for an NFT. This function can be changed to payable.",
        "params": {
          "_approved": "Address to be approved for the given NFT ID.",
          "_tokenId": "ID of the token to be approved."
        }
      },
      "balanceOf(address)": {
        "details": "Returns the number of NFTs owned by `_owner`. NFTs assigned to the zero address are considered invalid, and this function throws for queries about the zero address.",
        "params": {
          "_owner": "Address for whom to query the balance."
        },
        "returns": {
          "_0": "Balance of _owner."
        }
      },
      "getApproved(uint256)": {
        "details": "Get the approved address for a single NFT.",
        "params": {
          "_tokenId": "ID of the NFT to query the approval of."
        },
        "returns": {
          "_0": "Address that _tokenId is approved for."
        }
      },
      "isApprovedForAll(address,address)": {
        "details": "Checks if `_operator` is an approved operator for `_owner`.",
        "params": {
          "_operator": "The address that acts on behalf of the owner.",
          "_owner": "The address that owns the NFTs."
        },
        "returns": {
          "_0": "True if approved for all, false otherwise."
        }
      },
      "name()": {
        "details": "Returns a descriptive name for a collection of NFTokens.",
        "returns": {
          "_name": "Representing name."
        }
      },
      "ownerOf(uint256)": {
        "details": "Returns the address of the owner of the NFT. NFTs assigned to the zero address are considered invalid, and queries about them do throw.",
        "params": {
          "_tokenId": "The identifier for an NFT."
        },
        "returns": {
          "_owner": "Address of _tokenId owner."
        }
      },
      "safeTransferFrom(address,address,uint256)": {
        "details": "Transfers the ownership of an NFT from one address to another address. This function can be changed to payable.",
        "params": {
          "_from": "The current owner of the NFT.",
          "_to": "The new owner.",
          "_tokenId": "The NFT to transfer."
        }
      },
      "safeTransferFrom(address,address,uint256,bytes)": {
        "details": "Transfers the ownership of an NFT from one address to another address. This function can be changed to payable.",
        "params": {
          "_data": "Additional data with no specified format, sent in call to `_to`.",
          "_from": "The current owner of the NFT.",
          "_to": "The new owner.",
          "_tokenId": "The NFT to transfer."
        }
      },
      "setApprovalForAll(address,bool)": {
        "details": "Enables or disables approval for a third party (\"operator\") to manage all of `msg.sender`'s assets. It also emits the ApprovalForAll event.",
        "params": {
          "_approved": "True if the operators is approved, false to revoke approval.",
          "_operator": "Address to add to the set of authorized operators."
        }
      },
      "supportsInterface(bytes4)": {
        "details": "Function to check which interfaces are suported by this contract.",
        "params": {
          "_interfaceID": "Id of the interface."
        },
        "returns": {
          "_0": "True if _interfaceID is supported, false otherwise."
        }
      },
      "symbol()": {
        "details": "Returns an abbreviated name for NFTokens.",
        "returns": {
          "_symbol": "Representing symbol."
        }
      },
      "tokenURI(uint256)": {
        "details": "A distinct URI (RFC 3986) for a given NFT.",
        "params": {
          "_tokenId": "Id for which we want uri."
        },
        "returns": {
          "_0": "URI of _tokenId."
        }
      },
      "transferFrom(address,address,uint256)": {
        "details": "Throws unless `msg.sender` is the current owner, an authorized operator, or the approved address for this NFT. Throws if `_from` is not the current owner. Throws if `_to` is the zero address. Throws if `_tokenId` is not a valid NFT. This function can be changed to payable.",
        "params": {
          "_from": "The current owner of the NFT.",
          "_to": "The new owner.",
          "_tokenId": "The NFT to transfer."
        }
      },
      "transferOwnership(address)": {
        "details": "Allows the current owner to transfer control of the contract to a newOwner.",
        "params": {
          "_newOwner": "The address to transfer ownership to."
        }
      }
    },
    "version": 1
  },
  "userdoc": {
    "kind": "user",
    "methods": {
      "approve(address,uint256)": {
        "notice": "The zero address indicates there is no approved address. Throws unless `msg.sender` is the current NFT owner, or an authorized operator of the current owner."
      },
      "getApproved(uint256)": {
        "notice": "Throws if `_tokenId` is not a valid NFT."
      },
      "safeTransferFrom(address,address,uint256)": {
        "notice": "This works identically to the other function with an extra data parameter, except this function just sets data to \"\"."
      },
      "safeTransferFrom(address,address,uint256,bytes)": {
        "notice": "Throws unless `msg.sender` is the current owner, an authorized operator, or the approved address for this NFT. Throws if `_from` is not the current owner. Throws if `_to` is the zero address. Throws if `_tokenId` is not a valid NFT. When transfer is complete, this function checks if `_to` is a smart contract (code size > 0). If so, it calls `onERC721Received` on `_to` and throws if the return value is not `bytes4(keccak256(\"onERC721Received(address,uint256,bytes)\"))`."
      },
      "setApprovalForAll(address,bool)": {
        "notice": "This works even if sender doesn't own any tokens at the time."
      },
      "transferFrom(address,address,uint256)": {
        "notice": "The caller is responsible to confirm that `_to` is capable of receiving NFTs or else they may be permanently lost."
      }
    },
    "version": 1
  }
}