{
  "contractName": "NFToken",
  "abi": [
    {
      "inputs": [],
      "stateMutability": "nonpayable",
      "type": "constructor"
    },
    {
      "anonymous": false,
      "inputs": [
        {
          "indexed": true,
          "internalType": "address",
          "name": "_owner",
          "type": "address"
        },
        {
          "indexed": true,
          "internalType": "address",
          "name": "_approved",
          "type": "address"
        },
        {
          "indexed": true,
          "internalType": "uint256",
          "name": "_tokenId",
          "type": "uint256"
        }
      ],
      "name": "Approval",
      "type": "event"
    },
    {
      "anonymous": false,
      "inputs": [
        {
          "indexed": true,
          "internalType": "address",
          "name": "_owner",
          "type": "address"
        },
        {
          "indexed": true,
          "internalType": "address",
          "name": "_operator",
          "type": "address"
        },
        {
          "indexed": false,
          "internalType": "bool",
          "name": "_approved",
          "type": "bool"
        }
      ],
      "name": "ApprovalForAll",
      "type": "event"
    },
    {
      "anonymous": false,
      "inputs": [
        {
          "indexed": true,
          "internalType": "address",
          "name": "_from",
          "type": "address"
        },
        {
          "indexed": true,
          "internalType": "address",
          "name": "_to",
          "type": "address"
        },
        {
          "indexed": true,
          "internalType": "uint256",
          "name": "_tokenId",
          "type": "uint256"
        }
      ],
      "name": "Transfer",
      "type": "event"
    },
    {
      "inputs": [
        {
          "internalType": "bytes4",
          "name": "_interfaceID",
          "type": "bytes4"
        }
      ],
      "name": "supportsInterface",
      "outputs": [
        {
          "internalType": "bool",
          "name": "",
          "type": "bool"
        }
      ],
      "stateMutability": "view",
      "type": "function"
    },
    {
      "inputs": [
        {
          "internalType": "address",
          "name": "_from",
          "type": "address"
        },
        {
          "internalType": "address",
          "name": "_to",
          "type": "address"
        },
        {
          "internalType": "uint256",
          "name": "_tokenId",
          "type": "uint256"
        }
      ],
      "name": "safeTransferFrom",
      "outputs": [],
      "stateMutability": "nonpayable",
      "type": "function"
    },
    {
      "inputs": [
        {
          "internalType": "address",
          "name": "_from",
          "type": "address"
        },
        {
          "internalType": "address",
          "name": "_to",
          "type": "address"
        },
        {
          "internalType": "uint256",
          "name": "_tokenId",
          "type": "uint256"
        },
        {
          "internalType": "bytes",
          "name": "_data",
          "type": "bytes"
        }
      ],
      "name": "safeTransferFrom",
      "outputs": [],
      "stateMutability": "nonpayable",
      "type": "function"
    },
    {
      "inputs": [
        {
          "internalType": "address",
          "name": "_from",
          "type": "address"
        },
        {
          "internalType": "address",
          "name": "_to",
          "type": "address"
        },
        {
          "internalType": "uint256",
          "name": "_tokenId",
          "type": "uint256"
        }
      ],
      "name": "transferFrom",
      "outputs": [],
      "stateMutability": "nonpayable",
      "type": "function"
    },
    {
      "inputs": [
        {
          "internalType": "address",
          "name": "_approved",
          "type": "address"
        },
        {
          "internalType": "uint256",
          "name": "_tokenId",
          "type": "uint256"
        }
      ],
      "name": "approve",
      "outputs": [],
      "stateMutability": "nonpayable",
      "type": "function"
    },
    {
      "inputs": [
        {
          "internalType": "address",
          "name": "_operator",
          "type": "address"
        },
        {
          "internalType": "bool",
          "name": "_approved",
          "type": "bool"
        }
      ],
      "name": "setApprovalForAll",
      "outputs": [],
      "stateMutability": "nonpayable",
      "type": "function"
    },
    {
      "inputs": [
        {
          "internalType": "address",
          "name": "_owner",
          "type": "address"
        }
      ],
      "name": "balanceOf",
      "outputs": [
        {
          "internalType": "uint256",
          "name": "",
          "type": "uint256"
        }
      ],
      "stateMutability": "view",
      "type": "function"
    },
    {
      "inputs": [
        {
          "internalType": "uint256",
          "name": "_tokenId",
          "type": "uint256"
        }
      ],
      "name": "ownerOf",
      "outputs": [
        {
          "internalType": "address",
          "name": "_owner",
          "type": "address"
        }
      ],
      "stateMutability": "view",
      "type": "function"
    },
    {
      "inputs": [
        {
          "internalType": "uint256",
          "name": "_tokenId",
          "type": "uint256"
        }
      ],
      "name": "getApproved",
      "outputs": [
        {
          "internalType": "address",
          "name": "",
          "type": "address"
        }
      ],
      "stateMutability": "view",
      "type": "function"
    },
    {
      "inputs": [
        {
          "internalType": "address",
          "name": "_owner",
          "type": "address"
        },
        {
          "internalType": "address",
          "name": "_operator",
          "type": "address"
        }
      ],
      "name": "isApprovedForAll",
      "outputs": [
        {
          "internalType": "bool",
          "name": "",
          "type": "bool"
        }
      ],
      "stateMutability": "view",
      "type": "function"
    }
  ],
  "bytecode": "0x6080604052348015600e575f80fd5b505f60208190527f67be87c3ff9960ca1e9cfac5cab2ff4747269cf9ed20c9b7306235ac35a491c5805460ff1990811660019081179092556380ac58cd60e01b9092527ff7815fccbf112960a73756e185887fedcb9fc64ca0a16cc5923b7960ed7808008054909216179055610ecd806100875f395ff3fe608060405234801561000f575f80fd5b506004361061009b575f3560e01c80636352211e116100635780636352211e1461014657806370a0823114610159578063a22cb4651461017a578063b88d4fde1461018d578063e985e9c5146101a0575f80fd5b806301ffc9a71461009f578063081812fc146100e0578063095ea7b31461010b57806323b872dd1461012057806342842e0e14610133575b5f80fd5b6100cb6100ad366004610bfb565b6001600160e01b0319165f9081526020819052604090205460ff1690565b60405190151581526020015b60405180910390f35b6100f36100ee366004610c1d565b6101db565b6040516001600160a01b0390911681526020016100d7565b61011e610119366004610c4f565b61025b565b005b61011e61012e366004610c77565b6103f7565b61011e610141366004610c77565b6105ad565b6100f3610154366004610c1d565b6105cc565b61016c610167366004610cb0565b610623565b6040519081526020016100d7565b61011e610188366004610cc9565b610689565b61011e61019b366004610d02565b6106f4565b6100cb6101ae366004610d95565b6001600160a01b039182165f90815260046020908152604080832093909416825291909152205460ff1690565b5f818152600160209081526040808320548151808301909252600682526518181998181960d11b9282019290925283916001600160a01b031661023a5760405162461bcd60e51b81526004016102319190610df4565b60405180910390fd5b505f838152600260205260409020546001600160a01b031691505b50919050565b5f8181526001602052604090205481906001600160a01b0316338114806102a457506001600160a01b0381165f90815260046020908152604080832033845290915290205460ff165b6040518060400160405280600681526020016530303330303360d01b815250906102e15760405162461bcd60e51b81526004016102319190610df4565b505f83815260016020908152604091829020548251808401909352600683526518181998181960d11b918301919091528491906001600160a01b031661033a5760405162461bcd60e51b81526004016102319190610df4565b505f84815260016020908152604091829020548251808401909352600683526506060666060760d31b918301919091526001600160a01b039081169190871682036103985760405162461bcd60e51b81526004016102319190610df4565b505f8581526002602052604080822080546001600160a01b0319166001600160a01b038a811691821790925591518893918516917f8c5be1e5ebec7d5bd14f71427d1e84f3dd0314c0f7b2291e5b200ac8c7c3b92591a4505050505050565b5f8181526001602052604090205481906001600160a01b03163381148061043357505f828152600260205260409020546001600160a01b031633145b8061046057506001600160a01b0381165f90815260046020908152604080832033845290915290205460ff165b604051806040016040528060068152602001650c0c0ccc0c0d60d21b8152509061049d5760405162461bcd60e51b81526004016102319190610df4565b505f83815260016020908152604091829020548251808401909352600683526518181998181960d11b918301919091528491906001600160a01b03166104f65760405162461bcd60e51b81526004016102319190610df4565b505f84815260016020908152604091829020548251808401909352600683526530303330303760d01b918301919091526001600160a01b039081169190881682146105545760405162461bcd60e51b81526004016102319190610df4565b5060408051808201909152600681526530303330303160d01b60208201526001600160a01b0387166105995760405162461bcd60e51b81526004016102319190610df4565b506105a4868661073c565b50505050505050565b6105c783838360405180602001604052805f8152506107c6565b505050565b5f81815260016020908152604091829020548251808401909352600683526518181998181960d11b918301919091526001600160a01b031690816102555760405162461bcd60e51b81526004016102319190610df4565b60408051808201909152600681526530303330303160d01b60208201525f906001600160a01b0383166106695760405162461bcd60e51b81526004016102319190610df4565b506001600160a01b0382165f908152600360205260409020545b92915050565b335f8181526004602090815260408083206001600160a01b03871680855290835292819020805460ff191686151590811790915590519081529192917f17307eab39ab6107e8899845ad3d59bd9653f200f220920489ca2b5937696c31910160405180910390a35050565b61073585858585858080601f0160208091040260200160405190810160405280939291908181526020018383808284375f920191909152506107c692505050565b5050505050565b5f81815260016020908152604080832054600290925290912080546001600160a01b03191690556001600160a01b03166107768183610a5c565b6107808383610b02565b81836001600160a01b0316826001600160a01b03167fddf252ad1be2c89b69c2b068fc378daa952ba7f163c4a11628f55a4df523b3ef60405160405180910390a4505050565b5f8281526001602052604090205482906001600160a01b03163381148061080257505f828152600260205260409020546001600160a01b031633145b8061082f57506001600160a01b0381165f90815260046020908152604080832033845290915290205460ff165b604051806040016040528060068152602001650c0c0ccc0c0d60d21b8152509061086c5760405162461bcd60e51b81526004016102319190610df4565b505f84815260016020908152604091829020548251808401909352600683526518181998181960d11b918301919091528591906001600160a01b03166108c55760405162461bcd60e51b81526004016102319190610df4565b505f85815260016020908152604091829020548251808401909352600683526530303330303760d01b918301919091526001600160a01b039081169190891682146109235760405162461bcd60e51b81526004016102319190610df4565b5060408051808201909152600681526530303330303160d01b60208201526001600160a01b0388166109685760405162461bcd60e51b81526004016102319190610df4565b50610973878761073c565b610985876001600160a01b0316610ba8565b15610a5257604051630a85bd0160e11b81525f906001600160a01b0389169063150b7a02906109be9033908d908c908c90600401610e06565b6020604051808303815f875af11580156109da573d5f803e3d5ffd5b505050506040513d601f19601f820116820180604052508101906109fe9190610e42565b60408051808201909152600681526530303330303560d01b60208201529091506001600160e01b03198216630a85bd0160e11b14610a4f5760405162461bcd60e51b81526004016102319190610df4565b50505b5050505050505050565b5f81815260016020908152604091829020548251808401909352600683526530303330303760d01b918301919091526001600160a01b03848116911614610ab65760405162461bcd60e51b81526004016102319190610df4565b506001600160a01b0382165f908152600360205260408120805460019290610adf908490610e71565b90915550505f90815260016020526040902080546001600160a01b031916905550565b5f81815260016020908152604091829020548251808401909352600683526518181998181b60d11b918301919091526001600160a01b031615610b585760405162461bcd60e51b81526004016102319190610df4565b505f81815260016020818152604080842080546001600160a01b0319166001600160a01b038816908117909155845260039091528220805491929091610b9f908490610e84565b90915550505050565b5f813f7fc5d2460186f7233c927e7db2dcc703c0e500b653ca82273b7bfad8045d85a4708115801590610bdb5750808214155b949350505050565b6001600160e01b031981168114610bf8575f80fd5b50565b5f60208284031215610c0b575f80fd5b8135610c1681610be3565b9392505050565b5f60208284031215610c2d575f80fd5b5035919050565b80356001600160a01b0381168114610c4a575f80fd5b919050565b5f8060408385031215610c60575f80fd5b610c6983610c34565b946020939093013593505050565b5f805f60608486031215610c89575f80fd5b610c9284610c34565b9250610ca060208501610c34565b9150604084013590509250925092565b5f60208284031215610cc0575f80fd5b610c1682610c34565b5f8060408385031215610cda575f80fd5b610ce383610c34565b915060208301358015158114610cf7575f80fd5b809150509250929050565b5f805f805f60808688031215610d16575f80fd5b610d1f86610c34565b9450610d2d60208701610c34565b935060408601359250606086013567ffffffffffffffff80821115610d50575f80fd5b818801915088601f830112610d63575f80fd5b813581811115610d71575f80fd5b896020828501011115610d82575f80fd5b9699959850939650602001949392505050565b5f8060408385031215610da6575f80fd5b610daf83610c34565b9150610dbd60208401610c34565b90509250929050565b5f81518084528060208401602086015e5f602082860101526020601f19601f83011685010191505092915050565b602081525f610c166020830184610dc6565b6001600160a01b03858116825284166020820152604081018390526080606082018190525f90610e3890830184610dc6565b9695505050505050565b5f60208284031215610e52575f80fd5b8151610c1681610be3565b634e487b7160e01b5f52601160045260245ffd5b8181038181111561068357610683610e5d565b8082018082111561068357610683610e5d56fea2646970667358221220a86268c153b21de400846f75af27fc190d9beac29db347d2580fa469bee8671d64736f6c63430008190033",
  "immutableReferences": {},
  "source": "// SPDX-License-Identifier: MIT\npragma solidity ^0.8.0;\n\nimport \"./erc721.sol\";\nimport \"./erc721-token-receiver.sol\";\nimport \"../utils/supports-interface.sol\";\nimport \"../utils/address-utils.sol\";\n\n/**\n * @dev Implementation of ERC-721 non-fungible token standard.\n */\ncontract NFToken is\n  ERC721,\n  SupportsInterface\n{\n  using AddressUtils for address;\n\n  /**\n   * @dev List of revert message codes. Implementing dApp should handle showing the correct message.\n   * Based on 0xcert framework error codes.\n   */\n  string constant ZERO_ADDRESS = \"003001\";\n  string constant NOT_VALID_NFT = \"003002\";\n  string constant NOT_OWNER_OR_OPERATOR = \"003003\";\n  string constant NOT_OWNER_APPROVED_OR_OPERATOR = \"003004\";\n  string constant NOT_ABLE_TO_RECEIVE_NFT = \"003005\";\n  string constant NFT_ALREADY_EXISTS = \"003006\";\n  string constant NOT_OWNER = \"003007\";\n  string constant IS_OWNER = \"003008\";\n\n  /**\n   * @dev Magic value of a smart contract that can receive NFT.\n   * Equal to: bytes4(keccak256(\"onERC721Received(address,address,uint256,bytes)\")).\n   */\n  bytes4 internal constant MAGIC_ON_ERC721_RECEIVED = 0x150b7a02;\n\n  /**\n   * @dev A mapping from NFT ID to the address that owns it.\n   */\n  mapping (uint256 => address) internal idToOwner;\n\n  /**\n   * @dev Mapping from NFT ID to approved address.\n   */\n  mapping (uint256 => address) internal idToApproval;\n\n   /**\n   * @dev Mapping from owner address to count of their tokens.\n   */\n  mapping (address => uint256) private ownerToNFTokenCount;\n\n  /**\n   * @dev Mapping from owner address to mapping of operator addresses.\n   */\n  mapping (address => mapping (address => bool)) internal ownerToOperators;\n\n  /**\n   * @dev Guarantees that the msg.sender is an owner or operator of the given NFT.\n   * @param _tokenId ID of the NFT to validate.\n   */\n  modifier canOperate(\n    uint256 _tokenId\n  )\n  {\n    address tokenOwner = idToOwner[_tokenId];\n    require(\n      tokenOwner == msg.sender || ownerToOperators[tokenOwner][msg.sender],\n      NOT_OWNER_OR_OPERATOR\n    );\n    _;\n  }\n\n  /**\n   * @dev Guarantees that the msg.sender is allowed to transfer NFT.\n   * @param _tokenId ID of the NFT to transfer.\n   */\n  modifier canTransfer(\n    uint256 _tokenId\n  )\n  {\n    address tokenOwner = idToOwner[_tokenId];\n    require(\n      tokenOwner == msg.sender\n      || idToApproval[_tokenId] == msg.sender\n      || ownerToOperators[tokenOwner][msg.sender],\n      NOT_OWNER_APPROVED_OR_OPERATOR\n    );\n    _;\n  }\n\n  /**\n   * @dev Guarantees that _tokenId is a valid Token.\n   * @param _tokenId ID of the NFT to validate.\n   */\n  modifier validNFToken(\n    uint256 _tokenId\n  )\n  {\n    require(idToOwner[_tokenId] != address(0), NOT_VALID_NFT);\n    _;\n  }\n\n  /**\n   * @dev Contract constructor.\n   */\n  constructor()\n  {\n    supportedInterfaces[0x80ac58cd] = true; // ERC721\n  }\n\n  /**\n   * @notice Throws unless `msg.sender` is the current owner, an authorized operator, or the\n   * approved address for this NFT. Throws if `_from` is not the current owner. Throws if `_to` is\n   * the zero address. Throws if `_tokenId` is not a valid NFT. When transfer is complete, this\n   * function checks if `_to` is a smart contract (code size > 0). If so, it calls\n   * `onERC721Received` on `_to` and throws if the return value is not\n   * `bytes4(keccak256(\"onERC721Received(address,uint256,bytes)\"))`.\n   * @dev Transfers the ownership of an NFT from one address to another address. This function can\n   * be changed to payable.\n   * @param _from The current owner of the NFT.\n   * @param _to The new owner.\n   * @param _tokenId The NFT to transfer.\n   * @param _data Additional data with no specified format, sent in call to `_to`.\n   */\n  function safeTransferFrom(\n    address _from,\n    address _to,\n    uint256 _tokenId,\n    bytes calldata _data\n  )\n    external\n    override\n  {\n    _safeTransferFrom(_from, _to, _tokenId, _data);\n  }\n\n  /**\n   * @notice This works identically to the other function with an extra data parameter, except this\n   * function just sets data to \"\".\n   * @dev Transfers the ownership of an NFT from one address to another address. This function can\n   * be changed to payable.\n   * @param _from The current owner of the NFT.\n   * @param _to The new owner.\n   * @param _tokenId The NFT to transfer.\n   */\n  function safeTransferFrom(\n    address _from,\n    address _to,\n    uint256 _tokenId\n  )\n    external\n    override\n  {\n    _safeTransferFrom(_from, _to, _tokenId, \"\");\n  }\n\n  /**\n   * @notice The caller is responsible to confirm that `_to` is capable of receiving NFTs or else\n   * they may be permanently lost.\n   * @dev Throws unless `msg.sender` is the current owner, an authorized operator, or the approved\n   * address for this NFT. Throws if `_from` is not the current owner. Throws if `_to` is the zero\n   * address. Throws if `_tokenId` is not a valid NFT. This function can be changed to payable.\n   * @param _from The current owner of the NFT.\n   * @param _to The new owner.\n   * @param _tokenId The NFT to transfer.\n   */\n  function transferFrom(\n    address _from,\n    address _to,\n    uint256 _tokenId\n  )\n    external\n    override\n    canTransfer(_tokenId)\n    validNFToken(_tokenId)\n  {\n    address tokenOwner = idToOwner[_tokenId];\n    require(tokenOwner == _from, NOT_OWNER);\n    require(_to != address(0), ZERO_ADDRESS);\n\n    _transfer(_to, _tokenId);\n  }\n\n  /**\n   * @notice The zero address indicates there is no approved address. Throws unless `msg.sender` is\n   * the current NFT owner, or an authorized operator of the current owner.\n   * @dev Set or reaffirm the approved address for an NFT. This function can be changed to payable.\n   * @param _approved Address to be approved for the given NFT ID.\n   * @param _tokenId ID of the token to be approved.\n   */\n  function approve(\n    address _approved,\n    uint256 _tokenId\n  )\n    external\n    override\n    canOperate(_tokenId)\n    validNFToken(_tokenId)\n  {\n    address tokenOwner = idToOwner[_tokenId];\n    require(_approved != tokenOwner, IS_OWNER);\n\n    idToApproval[_tokenId] = _approved;\n    emit Approval(tokenOwner, _approved, _tokenId);\n  }\n\n  /**\n   * @notice This works even if sender doesn't own any tokens at the time.\n   * @dev Enables or disables approval for a third party (\"operator\") to manage all of\n   * `msg.sender`'s assets. It also emits the ApprovalForAll event.\n   * @param _operator Address to add to the set of authorized operators.\n   * @param _approved True if the operators is approved, false to revoke approval.\n   */\n  function setApprovalForAll(\n    address _operator,\n    bool _approved\n  )\n    external\n    override\n  {\n    ownerToOperators[msg.sender][_operator] = _approved;\n    emit ApprovalForAll(msg.sender, _operator, _approved);\n  }\n\n  /**\n   * @dev Returns the number of NFTs owned by `_owner`. NFTs assigned to the zero address are\n   * considered invalid, and this function throws for queries about the zero address.\n   * @param _owner Address for whom to query the balance.\n   * @return Balance of _owner.\n   */\n  function balanceOf(\n    address _owner\n  )\n    external\n    override\n    view\n    returns (uint256)\n  {\n    require(_owner != address(0), ZERO_ADDRESS);\n    return _getOwnerNFTCount(_owner);\n  }\n\n  /**\n   * @dev Returns the address of the owner of the NFT. NFTs assigned to the zero address are\n   * considered invalid, and queries about them do throw.\n   * @param _tokenId The identifier for an NFT.\n   * @return _owner Address of _tokenId owner.\n   */\n  function ownerOf(\n    uint256 _tokenId\n  )\n    external\n    override\n    view\n    returns (address _owner)\n  {\n    _owner = idToOwner[_tokenId];\n    require(_owner != address(0), NOT_VALID_NFT);\n  }\n\n  /**\n   * @notice Throws if `_tokenId` is not a valid NFT.\n   * @dev Get the approved address for a single NFT.\n   * @param _tokenId ID of the NFT to query the approval of.\n   * @return Address that _tokenId is approved for.\n   */\n  function getApproved(\n    uint256 _tokenId\n  )\n    external\n    override\n    view\n    validNFToken(_tokenId)\n    returns (address)\n  {\n    return idToApproval[_tokenId];\n  }\n\n  /**\n   * @dev Checks if `_operator` is an approved operator for `_owner`.\n   * @param _owner The address that owns the NFTs.\n   * @param _operator The address that acts on behalf of the owner.\n   * @return True if approved for all, false otherwise.\n   */\n  function isApprovedForAll(\n    address _owner,\n    address _operator\n  )\n    external\n    override\n    view\n    returns (bool)\n  {\n    return ownerToOperators[_owner][_operator];\n  }\n\n  /**\n   * @notice Does NO checks.\n   * @dev Actually performs the transfer.\n   * @param _to Address of a new owner.\n   * @param _tokenId The NFT that is being transferred.\n   */\n  function _transfer(\n    address _to,\n    uint256 _tokenId\n  )\n    internal\n  {\n    address from = idToOwner[_tokenId];\n    _clearApproval(_tokenId);\n\n    _removeNFToken(from, _tokenId);\n    _addNFToken(_to, _tokenId);\n\n    emit Transfer(from, _to, _tokenId);\n  }\n\n  /**\n   * @notice This is an internal function which should be called from user-implemented external\n   * mint function. Its purpose is to show and properly initialize data structures when using this\n   * implementation.\n   * @dev Mints a new NFT.\n   * @param _to The address that will own the minted NFT.\n   * @param _tokenId of the NFT to be minted by the msg.sender.\n   */\n  function _mint(\n    address _to,\n    uint256 _tokenId\n  )\n    internal\n    virtual\n  {\n    require(_to != address(0), ZERO_ADDRESS);\n    require(idToOwner[_tokenId] == address(0), NFT_ALREADY_EXISTS);\n\n    _addNFToken(_to, _tokenId);\n\n    emit Transfer(address(0), _to, _tokenId);\n  }\n\n  /**\n   * @notice This is an internal function which should be called from user-implemented external burn\n   * function. Its purpose is to show and properly initialize data structures when using this\n   * implementation. Also, note that this burn implementation allows the minter to re-mint a burned\n   * NFT.\n   * @dev Burns a NFT.\n   * @param _tokenId ID of the NFT to be burned.\n   */\n  function _burn(\n    uint256 _tokenId\n  )\n    internal\n    virtual\n    validNFToken(_tokenId)\n  {\n    address tokenOwner = idToOwner[_tokenId];\n    _clearApproval(_tokenId);\n    _removeNFToken(tokenOwner, _tokenId);\n    emit Transfer(tokenOwner, address(0), _tokenId);\n  }\n\n  /**\n   * @notice Use and override this function with caution. Wrong usage can have serious consequences.\n   * @dev Removes a NFT from owner.\n   * @param _from Address from which we want to remove the NFT.\n   * @param _tokenId Which NFT we want to remove.\n   */\n  function _removeNFToken(\n    address _from,\n    uint256 _tokenId\n  )\n    internal\n    virtual\n  {\n    require(idToOwner[_tokenId] == _from, NOT_OWNER);\n    ownerToNFTokenCount[_from] -= 1;\n    delete idToOwner[_tokenId];\n  }\n\n  /**\n   * @notice Use and override this function with caution. Wrong usage can have serious consequences.\n   * @dev Assigns a new NFT to owner.\n   * @param _to Address to which we want to add the NFT.\n   * @param _tokenId Which NFT we want to add.\n   */\n  function _addNFToken(\n    address _to,\n    uint256 _tokenId\n  )\n    internal\n    virtual\n  {\n    require(idToOwner[_tokenId] == address(0), NFT_ALREADY_EXISTS);\n\n    idToOwner[_tokenId] = _to;\n    ownerToNFTokenCount[_to] += 1;\n  }\n\n  /**\n   *@dev Helper function that gets NFT count of owner. This is needed for overriding in enumerable\n   * extension to remove double storage (gas optimization) of owner NFT count.\n   * @param _owner Address for whom to query the count.\n   * @return Number of _owner NFTs.\n   */\n  function _getOwnerNFTCount(\n    address _owner\n  )\n    internal\n    virtual\n    view\n    returns (uint256)\n  {\n    return ownerToNFTokenCount[_owner];\n  }\n\n  /**\n   * @dev Actually perform the safeTransferFrom.\n   * @param _from The current owner of the NFT.\n   * @param _to The new owner.\n   * @param _tokenId The NFT to transfer.\n   * @param _data Additional data with no specified format, sent in call to `_to`.\n   */\n  function _safeTransferFrom(\n    address _from,\n    address _to,\n    uint256 _tokenId,\n    bytes memory _data\n  )\n    private\n    canTransfer(_tokenId)\n    validNFToken(_tokenId)\n  {\n    address tokenOwner = idToOwner[_tokenId];\n    require(tokenOwner == _from, NOT_OWNER);\n    require(_to != address(0), ZERO_ADDRESS);\n\n    _transfer(_to, _tokenId);\n\n    if (_to.isContract())\n    {\n      bytes4 retval = ERC721TokenReceiver(_to).onERC721Received(msg.sender, _from, _tokenId, _data);\n      require(retval == MAGIC_ON_ERC721_RECEIVED, NOT_ABLE_TO_RECEIVE_NFT);\n    }\n  }\n\n  /**\n   * @dev Clears the current approval of a given NFT ID.\n   * @param _tokenId ID of the NFT to be transferred.\n   */\n  function _clearApproval(\n    uint256 _tokenId\n  )\n    private\n  {\n    delete idToApproval[_tokenId];\n  }\n\n}\n",
  "sourcePath": "@0xcert/ethereum-erc721/src/contracts/tokens/nf-token.sol",
  "compiler": {
    "name": "solc",
    "version": "0.8.25+commit.b61c2a91.Emscripten.clang"
  },
  "schemaVersion": "3.4.16",
  "updatedAt": "2024-03-22T03:50:14.559Z",
  "devdoc": {
    "details": "Implementation of ERC-721 non-fungible token standard.",
    "events": {
      "Approval(address,address,uint256)": {
        "details": "This emits when the approved address for an NFT is changed or reaffirmed. The zero address indicates there is no approved address. When a Transfer event emits, this also indicates that the approved address for that NFT (if any) is reset to none."
      },
      "ApprovalForAll(address,address,bool)": {
        "details": "This emits when an operator is enabled or disabled for an owner. The operator can manage all NFTs of the owner."
      },
      "Transfer(address,address,uint256)": {
        "details": "Emits when ownership of any NFT changes by any mechanism. This event emits when NFTs are created (`from` == 0) and destroyed (`to` == 0). Exception: during contract creation, any number of NFTs may be created and assigned without emitting Transfer. At the time of any transfer, the approved address for that NFT (if any) is reset to none."
      }
    },
    "kind": "dev",
    "methods": {
      "approve(address,uint256)": {
        "details": "Set or reaffirm the approved address for an NFT. This function can be changed to payable.",
        "params": {
          "_approved": "Address to be approved for the given NFT ID.",
          "_tokenId": "ID of the token to be approved."
        }
      },
      "balanceOf(address)": {
        "details": "Returns the number of NFTs owned by `_owner`. NFTs assigned to the zero address are considered invalid, and this function throws for queries about the zero address.",
        "params": {
          "_owner": "Address for whom to query the balance."
        },
        "returns": {
          "_0": "Balance of _owner."
        }
      },
      "constructor": {
        "details": "Contract constructor."
      },
      "getApproved(uint256)": {
        "details": "Get the approved address for a single NFT.",
        "params": {
          "_tokenId": "ID of the NFT to query the approval of."
        },
        "returns": {
          "_0": "Address that _tokenId is approved for."
        }
      },
      "isApprovedForAll(address,address)": {
        "details": "Checks if `_operator` is an approved operator for `_owner`.",
        "params": {
          "_operator": "The address that acts on behalf of the owner.",
          "_owner": "The address that owns the NFTs."
        },
        "returns": {
          "_0": "True if approved for all, false otherwise."
        }
      },
      "ownerOf(uint256)": {
        "details": "Returns the address of the owner of the NFT. NFTs assigned to the zero address are considered invalid, and queries about them do throw.",
        "params": {
          "_tokenId": "The identifier for an NFT."
        },
        "returns": {
          "_owner": "Address of _tokenId owner."
        }
      },
      "safeTransferFrom(address,address,uint256)": {
        "details": "Transfers the ownership of an NFT from one address to another address. This function can be changed to payable.",
        "params": {
          "_from": "The current owner of the NFT.",
          "_to": "The new owner.",
          "_tokenId": "The NFT to transfer."
        }
      },
      "safeTransferFrom(address,address,uint256,bytes)": {
        "details": "Transfers the ownership of an NFT from one address to another address. This function can be changed to payable.",
        "params": {
          "_data": "Additional data with no specified format, sent in call to `_to`.",
          "_from": "The current owner of the NFT.",
          "_to": "The new owner.",
          "_tokenId": "The NFT to transfer."
        }
      },
      "setApprovalForAll(address,bool)": {
        "details": "Enables or disables approval for a third party (\"operator\") to manage all of `msg.sender`'s assets. It also emits the ApprovalForAll event.",
        "params": {
          "_approved": "True if the operators is approved, false to revoke approval.",
          "_operator": "Address to add to the set of authorized operators."
        }
      },
      "supportsInterface(bytes4)": {
        "details": "Function to check which interfaces are suported by this contract.",
        "params": {
          "_interfaceID": "Id of the interface."
        },
        "returns": {
          "_0": "True if _interfaceID is supported, false otherwise."
        }
      },
      "transferFrom(address,address,uint256)": {
        "details": "Throws unless `msg.sender` is the current owner, an authorized operator, or the approved address for this NFT. Throws if `_from` is not the current owner. Throws if `_to` is the zero address. Throws if `_tokenId` is not a valid NFT. This function can be changed to payable.",
        "params": {
          "_from": "The current owner of the NFT.",
          "_to": "The new owner.",
          "_tokenId": "The NFT to transfer."
        }
      }
    },
    "stateVariables": {
      "MAGIC_ON_ERC721_RECEIVED": {
        "details": "Magic value of a smart contract that can receive NFT. Equal to: bytes4(keccak256(\"onERC721Received(address,address,uint256,bytes)\"))."
      },
      "ZERO_ADDRESS": {
        "details": "List of revert message codes. Implementing dApp should handle showing the correct message. Based on 0xcert framework error codes."
      },
      "idToApproval": {
        "details": "Mapping from NFT ID to approved address."
      },
      "idToOwner": {
        "details": "A mapping from NFT ID to the address that owns it."
      },
      "ownerToNFTokenCount": {
        "details": "Mapping from owner address to count of their tokens."
      },
      "ownerToOperators": {
        "details": "Mapping from owner address to mapping of operator addresses."
      }
    },
    "version": 1
  },
  "userdoc": {
    "kind": "user",
    "methods": {
      "approve(address,uint256)": {
        "notice": "The zero address indicates there is no approved address. Throws unless `msg.sender` is the current NFT owner, or an authorized operator of the current owner."
      },
      "getApproved(uint256)": {
        "notice": "Throws if `_tokenId` is not a valid NFT."
      },
      "safeTransferFrom(address,address,uint256)": {
        "notice": "This works identically to the other function with an extra data parameter, except this function just sets data to \"\"."
      },
      "safeTransferFrom(address,address,uint256,bytes)": {
        "notice": "Throws unless `msg.sender` is the current owner, an authorized operator, or the approved address for this NFT. Throws if `_from` is not the current owner. Throws if `_to` is the zero address. Throws if `_tokenId` is not a valid NFT. When transfer is complete, this function checks if `_to` is a smart contract (code size > 0). If so, it calls `onERC721Received` on `_to` and throws if the return value is not `bytes4(keccak256(\"onERC721Received(address,uint256,bytes)\"))`."
      },
      "setApprovalForAll(address,bool)": {
        "notice": "This works even if sender doesn't own any tokens at the time."
      },
      "transferFrom(address,address,uint256)": {
        "notice": "The caller is responsible to confirm that `_to` is capable of receiving NFTs or else they may be permanently lost."
      }
    },
    "version": 1
  }
}