{
  "contractName": "Ownable",
  "abi": [
    {
      "inputs": [],
      "stateMutability": "nonpayable",
      "type": "constructor"
    },
    {
      "anonymous": false,
      "inputs": [
        {
          "indexed": true,
          "internalType": "address",
          "name": "previousOwner",
          "type": "address"
        },
        {
          "indexed": true,
          "internalType": "address",
          "name": "newOwner",
          "type": "address"
        }
      ],
      "name": "OwnershipTransferred",
      "type": "event"
    },
    {
      "inputs": [],
      "name": "CANNOT_TRANSFER_TO_ZERO_ADDRESS",
      "outputs": [
        {
          "internalType": "string",
          "name": "",
          "type": "string"
        }
      ],
      "stateMutability": "view",
      "type": "function"
    },
    {
      "inputs": [],
      "name": "NOT_CURRENT_OWNER",
      "outputs": [
        {
          "internalType": "string",
          "name": "",
          "type": "string"
        }
      ],
      "stateMutability": "view",
      "type": "function"
    },
    {
      "inputs": [],
      "name": "owner",
      "outputs": [
        {
          "internalType": "address",
          "name": "",
          "type": "address"
        }
      ],
      "stateMutability": "view",
      "type": "function"
    },
    {
      "inputs": [
        {
          "internalType": "address",
          "name": "_newOwner",
          "type": "address"
        }
      ],
      "name": "transferOwnership",
      "outputs": [],
      "stateMutability": "nonpayable",
      "type": "function"
    }
  ],
  "bytecode": "0x6080604052348015600e575f80fd5b505f80546001600160a01b031916331790556102758061002d5f395ff3fe608060405234801561000f575f80fd5b506004361061004a575f3560e01c8063860d248a1461004e5780638da5cb5b14610089578063f2fde38b146100b3578063f3fe3bc3146100c8575b5f80fd5b6100736040518060400160405280600681526020016518189c18181960d11b81525081565b60405161008091906101dd565b60405180910390f35b5f5461009b906001600160a01b031681565b6040516001600160a01b039091168152602001610080565b6100c66100c1366004610212565b6100ed565b005b6100736040518060400160405280600681526020016530313830303160d01b81525081565b5f5460408051808201909152600681526530313830303160d01b6020820152906001600160a01b0316331461013e5760405162461bcd60e51b815260040161013591906101dd565b60405180910390fd5b5060408051808201909152600681526518189c18181960d11b60208201526001600160a01b0382166101835760405162461bcd60e51b815260040161013591906101dd565b505f80546040516001600160a01b03808516939216917f8be0079c531659141344cd1fd0a4f28419497f9722a3daafe3b4186f6b6457e091a35f80546001600160a01b0319166001600160a01b0392909216919091179055565b602081525f82518060208401528060208501604085015e5f604082850101526040601f19601f83011684010191505092915050565b5f60208284031215610222575f80fd5b81356001600160a01b0381168114610238575f80fd5b939250505056fea26469706673582212202f36c9cfc089d75ac7f8756ca9a65ee6b06ac5631a70be3f70d76c793701f3aa64736f6c63430008190033",
  "immutableReferences": {},
  "source": "// SPDX-License-Identifier: MIT\npragma solidity ^0.8.0;\n\n/**\n * @dev The contract has an owner address, and provides basic authorization control whitch\n * simplifies the implementation of user permissions. This contract is based on the source code at:\n * https://github.com/OpenZeppelin/openzeppelin-solidity/blob/master/contracts/ownership/Ownable.sol\n */\ncontract Ownable\n{\n\n  /**\n   * @dev Error constants.\n   */\n  string public constant NOT_CURRENT_OWNER = \"018001\";\n  string public constant CANNOT_TRANSFER_TO_ZERO_ADDRESS = \"018002\";\n\n  /**\n   * @dev Current owner address.\n   */\n  address public owner;\n\n  /**\n   * @dev An event which is triggered when the owner is changed.\n   * @param previousOwner The address of the previous owner.\n   * @param newOwner The address of the new owner.\n   */\n  event OwnershipTransferred(\n    address indexed previousOwner,\n    address indexed newOwner\n  );\n\n  /**\n   * @dev The constructor sets the original `owner` of the contract to the sender account.\n   */\n  constructor()\n  {\n    owner = msg.sender;\n  }\n\n  /**\n   * @dev Throws if called by any account other than the owner.\n   */\n  modifier onlyOwner()\n  {\n    require(msg.sender == owner, NOT_CURRENT_OWNER);\n    _;\n  }\n\n  /**\n   * @dev Allows the current owner to transfer control of the contract to a newOwner.\n   * @param _newOwner The address to transfer ownership to.\n   */\n  function transferOwnership(\n    address _newOwner\n  )\n    public\n    onlyOwner\n  {\n    require(_newOwner != address(0), CANNOT_TRANSFER_TO_ZERO_ADDRESS);\n    emit OwnershipTransferred(owner, _newOwner);\n    owner = _newOwner;\n  }\n\n}\n",
  "sourcePath": "@0xcert/ethereum-erc721/src/contracts/ownership/ownable.sol",
  "compiler": {
    "name": "solc",
    "version": "0.8.25+commit.b61c2a91.Emscripten.clang"
  },
  "schemaVersion": "3.4.16",
  "updatedAt": "2024-03-22T03:50:14.549Z",
  "devdoc": {
    "details": "The contract has an owner address, and provides basic authorization control whitch simplifies the implementation of user permissions. This contract is based on the source code at: https://github.com/OpenZeppelin/openzeppelin-solidity/blob/master/contracts/ownership/Ownable.sol",
    "events": {
      "OwnershipTransferred(address,address)": {
        "details": "An event which is triggered when the owner is changed.",
        "params": {
          "newOwner": "The address of the new owner.",
          "previousOwner": "The address of the previous owner."
        }
      }
    },
    "kind": "dev",
    "methods": {
      "constructor": {
        "details": "The constructor sets the original `owner` of the contract to the sender account."
      },
      "transferOwnership(address)": {
        "details": "Allows the current owner to transfer control of the contract to a newOwner.",
        "params": {
          "_newOwner": "The address to transfer ownership to."
        }
      }
    },
    "stateVariables": {
      "NOT_CURRENT_OWNER": {
        "details": "Error constants."
      },
      "owner": {
        "details": "Current owner address."
      }
    },
    "version": 1
  },
  "userdoc": {
    "kind": "user",
    "methods": {},
    "version": 1
  }
}